:020000040800F2
:1000000060040020C101000845110008C90D000866
:1000100041110008A90200081512000800000000A4
:100020000000000000000000000000004D1100086A
:10003000AD0200080000000049110008511100083D
:10004000DB010008DB010008DB010008DB01000820
:10005000DB010008DB010008DB010008DB01000810
:10006000DB010008DB010008DB010008DB01000800
:10007000DB010008DB010008DB010008DB010008F0
:10008000DB010008DB010008DB010008DB010008E0
:10009000DB010008DB010008DB010008DB010008D0
:1000A000DB010008DB010008DB010008DB010008C0
:1000B000DB010008DB010008DB010008DB010008B0
:1000C000DB010008DB010008DB010008DB010008A0
:1000D000DB010008DB010008DB010008DB01000890
:1000E000DB010008DB010008DB010008DB01000880
:1000F000DB010008DB010008DB010008DB01000870
:10010000DB010008DB010008DB010008DB0100085F
:10011000DB010008DB010008DB010008DB0100084F
:10012000DB010008DB010008DB010008DB0100083F
:10013000DB010008DB010008DB010008DB0100082F
:10014000DB010008DB010008DB010008DB0100081F
:10015000DB010008DB010008DB010008DB0100080F
:10016000DB010008DB010008DB010008DB010008FF
:10017000DB010008DB010008DB01000800000000D3
:10018000DB010008DB010008DB010008DB010008DF
:10019000DB010008DB010008DB010008DB010008CF
:1001A000DB010008DB010008DB010008DFF80CD0F0
:1001B00000F068F80048004719120008000001101C
:1001C0000648804706480047FEE7FEE7FEE7FEE7F1
:1001D000FEE7FEE7FEE7FEE7FEE7FEE701120008A6
:1001E000AD0100082DE9F05F0546002092469B46D0
:1001F00088460646814640241BE02846414647463D
:10020000224600F02FF853465A46C01A914110D3A7
:1002100011461846224600F016F82D1A67EB010821
:100220004F4622460120002100F00DF817EB00098F
:100230004E41201EA4F10104DFDC484631462A4627
:100240004346BDE8F09F202A04DB203A00FA02F181
:10025000002070479140C2F1200320FA03F31943B4
:1002600090407047202A04DB203A21FA02F0002156
:10027000704721FA02F3D040C2F1200291400843B6
:1002800019467047064C074D06E0E06840F0010350
:1002900094E8070098471034AC42F6D3FFF78AFF82
:1002A000F412000814130008FEE700007047000075
:1002B000EFF3108072B600BFFEE700002DE9F041B9
:1002C0000B680268E3B1D1E9073722F4F8424E6ABD
:1002D0001A433A4332430260426847F6FF739A4337
:1002E000D1E90137D1E903651A433A43D1E9054120
:1002F00032432A432243114341600020BDE8F0818C
:1003000047F6FF7322EA030CD1E90132D1E903E495
:1003100043EA0C0301F114081A4398E8E00142EAA9
:100320000E0222432A433243496A3A4342EA080210
:10033000114301600020BDE8F08100002DE9F0418B
:100340008368AAB340F6FF72CFF60F721A40CB68EB
:100350004FF20006CFF6FF764F6906EB0333002617
:10036000CFF6F07606EB07571A433A438260C2682D
:10037000D1E900378E686FF00F0402F0704204EB91
:1003800007176FF0FF04013B0D6904EB06260024FC
:100390001A43CFF6FF7489693A4304EB05453243AB
:1003A00001392A4342EA0161C1600020BDE8F081C1
:1003B00003F0704CD1E90032D1E902E401F11008F8
:1003C0004FF20001013B6FF00F07CFF6FF7198E885
:1003D000600107EB02126FF0FF0701EB043100240C
:1003E00043EA0C0307EB0E27CFF6FF741A4304EB26
:1003F000054500243A43CFF6F074114304EB06564A
:100400002943A8F10104314341EA046181600020DD
:10041000BDE8F0812DE9F04F82B000F13E4242F29A
:10042000004502F1FF77C4F202050A224FEAB7261F
:10043000A84208BF0922092E38BF4FEAB7224FF061
:10044000010A002400274FF00008009208E000BFD6
:10045000023708F10108202F04F1040400F0B480F1
:100460000E680AFA08F916EA090FF1D0D1F804A0CB
:100470000AF0030BABF10106012E17D803228668A0
:1004800002FA07FECA6826EA0E06BA4032438260C4
:100490004268CAF3001522EA090205FA08F54FEA94
:1004A000480C6FEA0E062A4342600BE00322BA4072
:1004B000D643BBF1030FBC4604D1BC464FF0030B3F
:1004C00022E000BFC2688D68324005FA0CF52A436D
:1004D000BBF1020FC26017D16FF0030202EA5802AB
:1004E000024404F01C030F25D2F820E005FA03FAB9
:1004F0000D692EEA0A0E05FA03F343EA0E031362AE
:10050000D1F804A00AF0030B02680BFA0CF3324096
:100510001A431AF4403F4FF0010A026098D00022BB
:1005200043F644030192C4F202031A6843F6004EF4
:1005300042F480421A601A68C4F2010E02F480424A
:100540000192019A28F003024FF6084C7244CFF64C
:10055000FF7C52F80C3004F00C060F25B540AB437D
:10056000009D05FA06F6334342F80C30DEF8082009
:100570004B6842EA090643F60C4CDD0258BF22EAFA
:100580000906CEF80860C4F2010CDCF800209D02D8
:1005900042EA090658BF22EA0906CCF80060DEF8F4
:1005A00004209D0342EA090658BF22EA0906CEF854
:1005B0000460DEF80020DB0342EA090658BF22EAA5
:1005C0000906CEF8006043E702B0BDE8F08F0000F6
:1005D000002A08BF090481617047000040F25C00F6
:1005E000C2F200000068704740F2080040F25C016F
:1005F000C2F20000C2F2000100780A6810440860EC
:100600007047000080B543F60040C4F20200016864
:1006100041F400710160016841F48061016001688A
:1006200041F480710160032000F074F80F2000F0A5
:1006300005F800F027F8002080BD000070B540F2FA
:100640000806C2F2000640F210013278C2F2000140
:100650004FF47A730968B3FBF2F20446B1FBF2F18E
:10066000084600F09BFB0F2C4FF0010508D838B965
:100670004FF0FF3021460022002500F01FF8746083
:10068000284670BD82B0002043F640010190C4F2BC
:1006900002014A6842F480424A604A6802F4804299
:1006A0000192019A0090086840F080500860086844
:1006B00000F080500090009802B0704710B54EF6E0
:1006C0000C5CCEF2000CDCF80030C3F3022E8EF08E
:1006D0000704042C28BF0424BEF103034FF0FF3E9F
:1006E0000EFA04F438BF0023A14399400EFA03F335
:1006F0009A43114300F00F02043A624409010C329C
:1007000000F16043B0F1FF3FC8BF03F564421170D0
:1007100010BD00004EF60C51CEF200010A684FF6F3
:10072000FF031A4060F30A2242F0806040F0FD703F
:10073000086070472DE9F041002800F08B8043F6F7
:100740000808C4F202080446D8F8F8030D4600F081
:100750000F00884207D288F8F853D8F8F80300F061
:100760000F00A84276D12068810717D5410705D52B
:10077000D8F8001041F4E051C8F80010010705D581
:10078000D8F8001041F46041C8F80010D8F8001003
:10079000A26821F0F0011143C8F80010C0073FD152
:1007A000D8F8F80300F00F00A84207D988F8F853EA
:1007B000D8F8F80300F00F00A8424BD12068410799
:1007C00007D5D8F80010E26821F4E0511143C8F8C9
:1007D0000010000708D5D8F80000216920F4604017
:1007E00040EAC100C8F8000000F054F8D8F8001042
:1007F00041F2E222C1F30311C0F60002515C40F263
:10080000100220FA01F140F20C00C2F20000006870
:10081000C2F200021160FFF711FF0020BDE8F08175
:100820006068811E022907D258F8081C89015CBF44
:100830000120BDE8F08111E0012807D158F8081C1B
:1008400089035CBF0120BDE8F08107E058F8081C6F
:10085000890703D40120BDE8F08100BFD8F800105B
:1008600021F003010843C8F80000FFF7B7FE064671
:1008700041F28837D8F80000616800F00C00B0EB56
:10088000810F8DD0FFF7AAFE801BB842F2D903205A
:10089000BDE8F08110B543F60404C4F202046068B8
:1008A00000F00C0142F200400829C0F2F40007D029
:1008B000042918BF10BD41F20020C0F27A0010BD1B
:1008C000216801F03F02216823684902C3F38811BF
:1008D00006D4A1FB00010023FFF784FC07E000BF62
:1008E00041F20020C0F27A004843B0FBF2F02168E8
:1008F0000222C1F3014102EB4101B0FBF1F010BD56
:100900002DE9F04182B000286AD00446007843F611
:100910000006C007C4F202060BD0B06800F00C005D
:10092000042840F0A1803068800302D56068002868
:1009300056D0207880071AD5B06810F00C0F09D077
:10094000B06800F00C00082840F0A88070684002F1
:1009500000F1A4803068800702D5E06801283FD10B
:100960003068216920F0F80040EAC100306020784A
:10097000000739D4207840074ED4A5695DB3B0682C
:1009800000F00C00082840F0BD80012D28D07068D0
:10099000E16900F480028A4222D1216A00F03F021C
:1009A0008A421DD147F6C071626A0140B1EB821FD5
:1009B00016D1A26A0023CFF6FF7303EBC23200F414
:1009C00040316FF30F0291420AD1E16A00F070608A
:1009D000B0EB016F04D1002002B0BDE8F08100BF90
:1009E000012002B0BDE8F0816069002840F20000FB
:1009F000C4F2472076D00121C0F8801EFFF7EEFD3B
:100A0000054600BF706F8007B4D4FFF7E7FD401BB9
:100A10000228F7D9DDE000BF306C10F080580AD111
:100A200000200190306C40F080503064306C00F059
:100A300080500190019847F20007C4F2000738681F
:100A4000C00541D4386840F480703860FFF7C6FDB7
:100A5000054600BF3868C00536D4FFF7BFFD401B10
:100A60000228F7D9B5E000BFB06800F00C000828F4
:100A700003D1706840023FF556AF6068B0F5803F23
:100A800007D0B0F5A02F40F08D80306840F4802072
:100A90003060306840F4803030608DE0E0680028DD
:100AA00052D00020C4F2472001210160FFF796FDDB
:100AB000054600BF306880073FF552AFFFF78EFD57
:100AC000401B0228F6D984E0A068012805D005283B
:100AD0004ED1306F40F004003067306F40F00100BD
:100AE00030674FE00021C0F8801EFFF777FD054614
:100AF000706F80077FF53EAFFFF770FD401B022847
:100B0000F6D966E00027C4F2472700203866FFF7D1
:100B100065FD022D05460BD1306880015ED5FFF7DB
:100B20005DFD401B02284FF00300F5D954E700BFDC
:100B3000306880017FF54FAFFFF750FD401B022862
:100B40004FF00300F4D947E70020C4F2472000210A
:100B50000160FFF743FD0546306880077FF507AF6A
:100B6000FFF73CFD401B02284FF00300F4D933E7A8
:100B7000316F002821F001013167316F21F004014C
:100B800031674DD0FFF72AFD054641F2883700BF97
:100B9000306F800756D4FFF721FD401BB842F7D9CC
:100BA00017E000BF3168002821F4803131603168DE
:100BB00021F4802131604FD0FFF710FD054600BFC2
:100BC000306880033FF5B5AEFFF708FD401B642891
:100BD000F6D9032002B0BDE8F08100BF04F11C0586
:100BE0002FCD08430021CFF6FF7140EA821001EBC0
:100BF000C3316FF30F0140EA0560084370600120C4
:100C00003866FFF7EBFC0446306880013FF5E3AE41
:100C1000FFF7E4FC001B02284FF00300F4D9DBE6E9
:100C2000FFF7DCFC054641F2883700BF306F8007D4
:100C300008D5FFF7D3FC401BB8424FF00300F5D9AD
:100C4000CAE600BFB8F1000F7FF497AE306C20F019
:100C50008050306491E600BFFFF7C0FC054600BF3E
:100C6000306880037FF565AEFFF7B8FC401B642851
:100C70004FF00300F4D9AFE6002804BF012070470D
:100C8000B0B5044690F82C000D4628B9002084F831
:100C90002D00204600F012F8022084F82C00206875
:100CA000211DFFF70BFBD4E900022946FFF746FBA5
:100CB000012084F82C000020B0BD00002DE9F04791
:100CC00086B040F22400C2F200000178002961D110
:100CD0004FF0010A80F800A04FF0000843F63800FA
:100CE000CDF80480C4F20200016840F2004441F0F3
:100CF000010101600068C4F2020400F001000190EB
:100D000001984FF63F0001AD01904FF00209032614
:100D10000C2704F580502946CDE9029804960597E2
:100D2000FFF778FB04F580602946CDE901A9CDE9FC
:100D300003860597FFF76EFB48F23310CDE90109F2
:100D400004F5A0502946CDE903860597FFF762FB1D
:100D50004FF68370CDE9010904F540602946CDE9DD
:100D600003860597FFF756FB4CF20370CDE90109A6
:100D700004F500602946CDE903860597FFF74AFB95
:100D80006020CDE9010920462946CDE90386059773
:100D9000FFF740FB06B0BDE8F0870000411E0020D1
:100DA000B0EB116F1CBF012070474EF21002CEF263
:100DB000000251604EF62351CEF20001F0230B7079
:100DC0000721906011607047FEE70000B0B588B061
:100DD00040F2280040F2401CC2F20000CAF2000CAF
:100DE0000122002304214FF4C075C0E900C24FF472
:100DF000006200F1200CC0E90231C0E906534FF453
:100E000000558CE82C0007230222CDE90231032192
:100E10004FF0100E4024CDE9051201A9C0E904E409
:100E2000019204930792FFF727FF002818BFFFF7EE
:100E30003FFA08B0B0BD00002DE9F04F87B00025A3
:100E400043F630000295C4F202000168002441F02C
:100E5000040101600168C4F2020401F0040102917E
:100E600002990295016804F5006A41F020010160D1
:100E70000168002201F020010291029902950168A7
:100E80004FF0160841F080010160016801F0800117
:100E9000029102990295016841F001010160016827
:100EA00001F00101029102990295016841F00201ED
:100EB0000160016801F00201029102990295016846
:100EC00041F040010160016801F040010291029986
:100ED0000295016841F010010160016801F0100104
:100EE000029102990295016841F0080101600068D1
:100EF000162100F00800029002985046FFF768FBA8
:100F0000204680210022FFF763FB04F540604FF488
:100F1000405100220090FFF75BFB04F5C0504FF4F6
:100F2000C04100220190FFF753FB4FF46070029024
:100F3000052004F5A05602AF4FF0020B0690304694
:100F40003946CDE903B50595FFF764FA4FF48060A3
:100F5000CDE9020B0E20069030463946CDE9045506
:100F60004FF00E09FFF756FA01200390504639461C
:100F7000CDF808804FF00108CDE90455FFF74AFA93
:100F800048F2070002904FF4901620463946CDE90A
:100F90000365FFF73FFA41F65800CDE9020B204602
:100FA0003946CDE90455CDF818904FF00E09FFF7FA
:100FB00031FA8020CDE90208204639464FF0010879
:100FC000CDE90455FFF726FA2020CDE90206504668
:100FD00039460495FFF71EFA0320CDE9020B0920DC
:100FE00004F58066069030463946CDE90455FFF792
:100FF00011FA0420CDE90205304639460495FFF781
:1010000009FA4FF47060CDE9020B30463946CDE95C
:101010000455CDF81890FFF7FDF94FF45040CDE995
:10102000020B0C20069030463946CDE90455FFF7F7
:10103000F1F94FF40050CDE90205304639460495E8
:10104000FFF7E8F9DDF800904FF40060CDE9020504
:10105000484639460495FFF7DDF94FF44050CDE995
:10106000020848463946CDE90455FFF7D3F94FF455
:101070000C60CDE9020B01980E263946CDE90455E6
:101080000696FFF7C7F94FF49860CDE9020B50467A
:101090003946CDE904550696FFF7BCF94FF40070C8
:1010A000029012264FF00108042450463946039658
:1010B000CDE904850694FFF7ADF9CDE90554002488
:1010C0004FF4807002A9C4F2020481E84101204675
:1010D00039464FF00108FFF79DF94FF4C060CDE9A4
:1010E000020B032005900720069020463946049500
:1010F000FFF790F94820CDE9020B0E2006904846F4
:101100003946CDE90455FFF785F94FF4A050019E0B
:10111000CDE9020B0920069030463946CDE9045549
:10112000FFF778F94FF4C040CDE902083046394660
:10113000CDE90455FFF76EF907B0BDE8F08F000068
:10114000FEE70000FEE70000704700007047000067
:10115000FFF74ABAB0B592B0002443F64000CDE99B
:101160000A44CDE908440594CDE90344CDE901449E
:101170000094C4F202000168012241F08051016034
:101180000068022500F080500090009847F20000AF
:101190000094C4F20000016862F38F3101600068BE
:1011A00000F44040009000984FF4803007904FF4D6
:1011B00080000D9004200E904820CDE90F050320FB
:1011C000119006A806920C95FFF79AFB20B1EFF359
:1011D000108072B6FEE700BF0F20CDE901054FF485
:1011E0008050CDE9040401A802210394FFF7A2FA7C
:1011F00020B1EFF3108072B6FEE700BF12B0B0BDB1
:101200004EF68850CEF20000016841F47001016092
:1012100070470000FEE70000FFF7F4F9FFF79AFFC0
:10122000FFF70AFEFFF7D2FD40F22800C2F20000ED
:10123000FFF744FD0420042400F00EF840F21805E6
:10124000C2F200052860042000F006F8C5E9010498
:1012500000BF00BFFEE70000F0B50B30154D20F0D9
:1012600007010024144A0FE003688B420BD38B4222
:1012700005D95E1A43184768C3E9006700E0436870
:10128000136002C004E0021D10680028ECD1204663
:10129000002802D1286808B10020F0BD064A07489E
:1012A0001060074A121A22F00702C0E90024012048
:1012B0002860D7E70400002000000020040000A000
:1012C000000200A002E008C8121F08C1002AFAD1DB
:1012D00070477047002001E001C1121F002AFBD1B6
:1012E0007047000000000000000001020304060730
:1012F0000809000018130008000000201800000072
:10130000C412000830130008180000204804000030
:10131000D4120008000000000000000000000000DF
:1013200001000000100000000024F4000000000094
:04000005080001AD41
:00000001FF
